:100000000C943A000C9457000C9457000C94570031
:100010000C9457000C9457000C9457000C94570004
:100020000C9457000C9457000C9457000C945700F4
:100030000C9457000C9457000C9457000C945700E4
:100040000C9457000C9457000C9457000C945700D4
:100050000C9457000C9457000C9457000C945700C4
:100060000C9457000C9457000C9457000C945700B4
:100070000C94570011241FBECFEFD4E0DEBFCDBFDC
:1000800011E0A0E0B1E0ECEBFBE002C005900D92C6
:10009000A436B107D9F721E0A4E6B1E001C01D9272
:1000A000AB37B207E1F70E94E4040C94DC050C9432
:1000B0000000E1E6F0E080E880831082A89584B734
:1000C000877F84BFE0E6F0E08081886180831082D2
:1000D00008951092800084E0809381001092850042
:1000E0001092840008958091840090918500089575
:1000F0009C018091840090918500AC01421B530BC0
:10010000483E5340B0F70895209184003091850017
:10011000820F931F0C947800853098F4673088F430
:1001200021E030E001C0220F6A95EAF7E82FF0E005
:10013000EB59FE4F822F8095908189234111822BAC
:1001400080830895853080F4673070F4E82FF0E004
:10015000EB59FE4F81E090E001C0880F6A95EAF705
:100160009081982381E009F480E008956091640112
:10017000E62FF0E0EB59FE4F80810E940301809151
:1001800064018F5F853018F48093640108951092A4
:1001900064010895E5E6F1E0108211821282138273
:1001A000148208950E94E1000C94CA009C01FC0195
:1001B000FF2784A1832B84A385A1832B85A381E0C2
:1001C0000895CF93DF93CBE4D1E0899199910E9478
:1001D000D60081E0C935D807C1F783E090E40E94DA
:1001E000D60080E090E80E94D60083E090E10E9473
:1001F000D60083E090E80E94D60083E090E2DF9191
:10020000CF910C94D600E0916A01F0E0EE0FFF1F51
:10021000EF5BFE4F20813181F901FF2795A1932BE0
:1002200095A3ABE4B1E049E551E02D913D91F90191
:10023000FF2780FF1BC025A1932F9095922395A3A4
:1002400086954A175B0789F7E62FF0E0EE0FFF1F50
:10025000EF5BFE4F20813181F901FF2795A1832FAC
:100260008095892385A360936A01089595A1932BB6
:10027000E6CF9C0163307105A1F040F46130710557
:10028000E1F06230710511F180E00895643071058C
:10029000D9F7F901FF2784A1832B84A385A1832BA0
:1002A00009C0F901FF2784A1832B84A395A1832F83
:1002B0008095892385A381E00895F901FF2794A102
:1002C000832F8095982394A395A1F3CFF901FF275D
:1002D00094A1832F80958923E0CFE82FF0E0EE0FE3
:1002E000FF1FE559FE4F8081882329F0818191E02D
:1002F00089278170089580E0FCCFE82FF0E0EE0FB1
:10030000FF1FE559FE4F8081811103C081818170FB
:10031000089580E0FCCFE82FF0E0EE0FFF1FE559D5
:10032000FE4F80810895E82FF0E0EE0FFF1FE559A2
:10033000FE4F908181E0892708957F928F929F924E
:10034000AF92BF92CF92DF92EF92FF920F931F93E3
:10035000CF93DF93CBE6D1E059E5C52E51E0D52E02
:1003600066E0762E88818983F601019111916F01F3
:100370005801BB24F50124A1E12EFF2485A190E0C2
:100380008E219F2130E02E213F21232BB1F133E03C
:10039000832E912C892B19F094E0892E912C64E006
:1003A00070E0C8010E94390162E070E0C8010E945B
:1003B0003901872D8A95F1F7F50183A190E0E822B4
:1003C000F92281E0EF2809F080E08883B401C801B8
:1003D0000E9439012296F1E0C537DF0719F6DF9157
:1003E000CF911F910F91FF90EF90DF90CF90BF9032
:1003F000AF909F908F907F90089588248394912C44
:10040000892B69F282E0882E912CC9CF0895FC01D6
:10041000892B81F08381681B67FD09C0062E000CC3
:10042000770B948181E09617170609F00CF480E0B1
:100430008170089580E00895FC01A62F622F892B1A
:1004400069F18181481750F59281291738F5938118
:10045000A91BA7FD23C00A2E000CBB0B94819A1781
:100460001B06E1F0DCF00E945E05480F858190E0FC
:10047000BD010E9467059C01942F969596959695CF
:10048000E20FF31FE90FF11D868190E0477002C073
:10049000959587954A95E2F78170089580E00895D3
:1004A000CF93DF93EC010E9469009E0150E040E091
:1004B00062E17AE780E090E00E948C053093780159
:1004C00020937701DF91CF910895809175019091EC
:1004D00076010E94780080917501909176012091BB
:1004E000770130917801820F931F9093760180936A
:1004F00075010895692F0C94A20041E0611101C0BB
:1005000040E0692F0C948C000C947D025F926F92F6
:100510007F928F929F92AF92BF92CF92DF92EF9293
:10052000FF920F931F93CF93DF93862E772E942EF7
:10053000682E592EB62EA72E062E000C770BE82F0C
:10054000082E000CFF0B8B010E1B1F0B272D072CF9
:10055000000C330B492F092E000C550BE901C41B6D
:10056000D50B17FF59C0DD24DA94D7FD02C0DD2476
:10057000D3948F01061B170BCC24CA94D7FF03C05A
:10058000EA01C21BD30B0C171D076CF1780117FF92
:1005900003C08FEFE81AF80AF594E794A92E6810C3
:1005A00014C0692D8B2D9A2DDF91CF911F910F9142
:1005B000FF90EF90DF90CF90BF90AF909F908F9083
:1005C0007F906F905F900C947D02692D862D9A2DFF
:1005D0000E947D02EC1AFD0AF7FE03C0E00EF11E38
:1005E000AD0C6C0CDCCF7E01D7FF03C09FEFE91A86
:1005F000F90AF594E794B82E571499F2692D8B2DCA
:10060000952D0E947D02E01AF10AF7FE03C0EC0E60
:10061000FD1EBC0C5D0CF0CFCC24C394DD24DA9419
:10062000D7FDAECFDD24D394AECFFF920F931F93AF
:10063000CF93DF93D82FF92E162FC72F042F792FA2
:100640000E948602402F6D2F7C2F8D2F9F2D0E94A0
:100650008602402F612F7C2F812F9F2D0E948602C2
:10066000402F612F7C2F8D2F9C2FDF91CF911F91D9
:100670000F91FF900C9486020E94CA00E0E0F1E026
:10068000118A14860895DF92EF92FF920F931F93C1
:10069000CF93DF93D82E7B01C62F0F2D80910201BF
:1006A00090910301D0E0019751F1CE2DCD0FE09153
:1006B0000801F09109018181D81708F45CC0D0E0ED
:1006C000E0910801F09109018281D81708F455C022
:1006D000CF5F27C0212F4D2F6D2D0E941C02682F48
:1006E0008E2D810F902F0E947D021F5F8091080147
:1006F00090910901FC012281121760F3DF5F0F2D39
:100700000D1BE0910801F09109018181D81798F043
:10071000D0E0E0910801F09109018281D81768F0DA
:1007200001508C2F902FDF91CF911F910F91FF904F
:10073000EF90DF90089510E0D9CF60E08E2D8D0FFF
:10074000902F0E947D02DF5FE4CF212F4D2F6D2D72
:100750000E941C02682F8C2F9F2D910F0E947D02FA
:100760001F5F8091080190910901FC0122811217FD
:1007700060F3DF5F9ACF10E0F4CF60E08C2F9F2D05
:100780009D0F0E947D02DF5F9BCF1F93CF93DF936E
:10079000EC0110E08991882341F00E944303BC01E1
:1007A0001F5F853014F477FFF5CF812FDF91CF9154
:1007B0001F9108950F931F93CF93DF93EC01362F72
:1007C000272F10920C0140930D01109210010091FF
:1007D0000801109109010115110509F446C0F8013D
:1007E0008181609106017091070190E00E94670588
:1007F000BC0180910A0190910B010E947805CB0108
:100800006AE070E00E94670590930F0180930E01EB
:10081000309304012093050140E250E0BE0181E1E4
:1008200091E00E94CD058091000190910101019716
:10083000E1F4FE0101900020E9F73197BF016C1B44
:100840007D0BF80181818F5F0E945E0581502091B0
:1008500002013091030195E02130310509F497E060
:10086000981718F48EEF80931001DF91CF911F91AC
:100870000F910895209102013091030170E0213021
:10088000310509F476E04FEF60E00C94DA0390E074
:10089000909307018093060108959093010180933E
:1008A00000010895909303018093020108959093AD
:1008B00009018093080108958091790190917A014E
:1008C000019690937A018093790120910E013091E5
:1008D0000F018217930708F441C010927A01109219
:1008E0007901E0910C01F0E0E050FF4F8189811126
:1008F00009C080910D01823088F1815080930D01F3
:1009000010920C0180910C0190E0FC01E050FF4F2F
:100910002189222319F14091000150910101209178
:10092000100141155105E1F04130510551F180911F
:1009300010018F5F80931001082E000C990BE0913D
:100940000801F09109012181281719063CF4109241
:10095000100180910C018F5F80930C010C94B60004
:100960002111E5CF60910401709105018F5E9E4FCA
:100970000E94C50390910C019150980F90930C0127
:10098000D6CF609104017091050140910201509110
:1009900003014130510531F4720F8F5E9E4F0E946A
:1009A000C503C5CF621BF9CFCF93DF93C0E0D1E081
:1009B0009B878A870E94D20084E190E09F838E8388
:1009C000DF91CF910C943C03CDB7DEB728970FB6DB
:1009D000F894DEBF0FBECDBF0E9459008CE291E0BB
:1009E0000E94D4040E9406028CE291E00E94500210
:1009F00061E082E096E00E947D0210E000E026E0E7
:100A0000C22E32E0D32EF12CE12C0E9465020E940E
:100A10009D018FEFE81AF80A87E9E816F104ACF0B7
:100A20000230110509F446C030F40115110509F032
:100A30003FC0CA9403C003301105F1F161E08D2D70
:100A40009C2D0E947D02F12CE12C83E00E946D011F
:100A5000882399F088E0E1E3F1E0DE01119601904E
:100A60000D928A95E1F7000F111FE1E0F0E0EC0F25
:100A7000FD1FE00FF11F0081118181E00E946D01D7
:100A8000882399F088E0E9E3F1E0DE011196019016
:100A90000D928A95E1F7000F111FE1E0F0E0EC0FF5
:100AA000FD1FE00FF11F008111810E945C04ADCF9A
:100AB000D394C4CFC394C2CFDA94C0CF002480FDB6
:100AC000060E660F11F08695D1F7802D089500244B
:100AD000552704C0080E591F880F991F009729F049
:100AE00076956795B8F37105B9F7802D952F089520
:100AF000AA1BBB1B51E107C0AA1FBB1FA617B70744
:100B000010F0A61BB70B881F991F5A95A9F780955F
:100B10009095BC01CD010895052E97FB1EF400941D
:100B20000E94A30557FD07D00E94AB0507FC03D028
:100B30004EF40C94A30550954095309521953F4F68
:100B40004F4F5F4F089590958095709561957F4FB9
:100B50008F4F9F4F0895A1E21A2EAA1BBB1BFD01C8
:100B60000DC0AA1FBB1FEE1FFF1FA217B307E4078C
:100B7000F50720F0A21BB30BE40BF50B661F771FE4
:100B8000881F991F1A9469F76095709580959095C4
:100B90009B01AC01BD01CF010895FB01DC01415077
:100BA000504048F001900D920020C9F701C01D92FD
:0C0BB00041505040E0F70895F894FFCF4A
:100BBC000000000000001400000000000000000015
:100BCC000000000000000000000000000000000019
:100BDC000000000000000000000000000000000009
:100BEC0000030000000100020001000200030000ED
:100BFC00000340008003100380032000400020000D
:100C0C0010000800040002000103800340032000D0
:040C1C008003100041
:00000001FF
