:100000000C943A000C9457000C9457000C94570031
:100010000C9457000C9457000C9457000C94570004
:100020000C9457000C9457000C9457000C945700F4
:100030000C9457000C9457000C9457000C945700E4
:100040000C9457000C9457000C9457000C945700D4
:100050000C9457000C9457000C9457000C945700C4
:100060000C9457000C9457000C9457000C945700B4
:100070000C94570011241FBECFEFD4E0DEBFCDBFDC
:1000800012E0A0E0B1E0EEEDF9E102C005900D92C2
:10009000A231B107D9F722E0A2E1B2E001C01D927E
:1000A000AA3AB207E1F70E947D0B0C94ED0C0C9478
:1000B0000000DC01E62F842F65E00E94B20BE80F00
:1000C000EA0FFB2FF11D208308950895EF92FF9210
:1000D0000F931F93CF93DF938091360281114CC011
:1000E00084EF91E00E94370B89E491E00E94BA0A04
:1000F00081E090E00E94B00A81E090E00E94B50AA1
:100100008AE00E94AA0ACEE1D2E026E1E22E22E0B5
:10011000F22E02E112E0CE010E94D502F701819396
:1001200091937F01F80111928F012696F2E0C63378
:10013000DF0789F7EAE3F2E0119282E0ED35F80794
:10014000D9F762E071E080911802909119020E9443
:100150007A0268E071E080911C0290911D020E9479
:100160007A026EE071E080911A0290911B020E9467
:100170007A0281E080933602809100019091010122
:10018000039769F5C8E1D2E003E112E09EE1E92EB0
:1001900092E0F92E899199910E948D02F801819344
:1001A0008F01EC16FD06B1F7D0E08AE3E82E82E07D
:1001B000F82E8701C0E0F801E0810F5F1F4FF0E0EB
:1001C000EE5EFD4F6081CE010E94E008CF5FC5303A
:1001D00091F7F5E0EF0EF11CDF5FD73051F7DF91BB
:1001E000CF911F910F91FF90EF900C94BF0A0F9346
:1001F0001F93CF93DF93CDB7DEB7AC970FB6F894CC
:10020000DEBF0FBECDBF80913902811129C00E948F
:10021000210761E080E00E94190742E050E06DE5AF
:1002200072E090E080E00E946F0680915D028F3F57
:1002300021F410925D0210925E020AE312E029E5B9
:1002400030E047E065E084E690E00E94920370E0D1
:1002500060E085E690E00E94B90381E08093390276
:10026000809100019091010183309105E9F090F4B3
:100270008130910509F450C0029709F454C0AC963E
:100280000FB6F894DEBF0FBECDBFDF91CF911F91A7
:100290000F910895049799F7809138028F5F8093AA
:1002A0003802883C60F33CC00E94C0038111E7CF54
:1002B00067EE71E0CE0101960E947D0CFE01319641
:1002C00080818F0131968111FBCF0E94690640E049
:1002D000B8010E94470BF80180810F5F1F4F811109
:1002E000FACF8FE280830E946C0640E0B8010E9442
:1002F000470B0E949F09CE0101960E949D0A109211
:10030000380261E080E00E94190784E090E0909359
:10031000010180930001B3CF82EF91E00E949D0A1A
:1003200085E090E0F4CF0E949F0980915E028F5F8C
:1003300080935E0280915D0210E0833069F1F8F4F1
:10034000813029F1823031F104E083E00E9483039F
:10035000802F0E948003812F0E948F030E94F60548
:1003600042E050E06DE572E090E080E00E9485069A
:1003700060E080E00E94190783E090E0C8CF8430FD
:1003800059F0853009F7136002E084E0DFCF126096
:1003900003E0DBCF1160FCCF136003E0D7CFCF9336
:1003A000DF93D62FC72FACE0B2E09D9191110BC027
:1003B00040E00E94470B0E949F098D2F9C2FDF91E8
:1003C000CF910C949D0AFB019193BF01EECFCF9387
:1003D000DF93CDB7DEB7AC970FB6F894DEBF0FBE94
:1003E000CDBF80913702811105C00E94540881E081
:1003F000809337020E94EB0781E00E94BB078823AD
:10040000C1F080910001909101018330910509F4C0
:1004100061C0069771F480915D02843018F48F5F9B
:1004200080935D02BE016F5F7F4F80915D020E94ED
:10043000CF0183E00E94BB078823C1F080910001B7
:10044000909101018330910509F447C0069771F43A
:1004500080915D02823018F0815080935D02BE0170
:100460006F5F7F4F80915D020E94CF0183E00E9409
:10047000BB07882399F080910001909101010597B5
:1004800069F486E090E09093010180930001BE0141
:100490006F5F7F4F80915D020E94CF0184E00E94D8
:1004A000BB07882371F08091000190910101853094
:1004B0009105B1F086309105D1F0039711F40E94B7
:1004C000C705AC960FB6F894DEBF0FBECDBFDF9167
:1004D000CF9108950E94C105ACCF0E94C405C6CF3C
:1004E00082E090E09093010180930001EACF85E0E3
:1004F00090E0F8CFFC017183608312821382148232
:10050000158281E00895FC01808191810895FC01AC
:1005100012821382648381E00895FC01A081B1817D
:10052000109709F440C082818F5F82839C91891764
:1005300030F0128285818F5F8830B0F4858392819C
:1005400011968C911197981760F4938113968C9162
:100550001397981730F481E0248114969C91291701
:1005600008F080E081700895158283818F5F838316
:1005700012969C911297891710F3138284818F5FD2
:10058000848315969C911597911109C014969C919E
:1005900014978917A0F21182108281E008958917BB
:1005A00070F21482CCCF80E00895FC011182108299
:1005B00012821382148215820895CF93DF93DC0197
:1005C0009B01CFE5D2E0EEA5FFA511964C911197C6
:1005D0006C9188A999A9DF91CF9109940F931F93EA
:1005E000CF93DF93FC0100916B0210E040E0A42F59
:1005F000042E000CBB0BA017B10744F030E020E044
:10060000C901DF91CF911F910F910895CD0163E052
:1006100070E00E94BB0BEC01C15ADD4F8A81882338
:1006200061F09E01CE17DF0741F098818081981319
:1006300004C099818181981719F34F5FD8CFCF9368
:10064000C82F70E060E081E892E00E94DD028091B6
:1006500081028C0F9091830289176CF487FF02C08E
:100660008FEF890F8093810261E070E081E892E072
:10067000CF910C94DD0280E0F5CFBC01E0919102B6
:10068000F0919202309729F0809193029091940218
:1006900009940895FB01DC0112961C92AFE5B2E0CB
:1006A00099968C919997815099968C939997969653
:1006B0008C9196978F5F96968C93128270E060E093
:1006C000CF010E94DD0290E080E00C943D03809316
:1006D0008C020895EFE5F2E0682F70E082A593A503
:1006E0000E94D80B768765870895EFE5F2E0682FC2
:1006F00070E082A593A50E94D80B778F668F08952E
:1007000080938B020895853008F084E080936B021B
:100710000895853008F084E080937C0208958093EA
:10072000950208950F931F93CF93DF93CFE5D2E007
:100730006CA34DA33FA72EA719AB08AB9BA78AA715
:100740001BAA1AAA8EA98C7F8EAB1FAA83E08C8766
:1007500082E08D8F80E10E94750382E00E946A032F
:1007600084E08CA785E08DA7DF91CF911F910F9139
:100770000895EFE5F2E093AB82AB75AB64AB0895FF
:100780006F927F929F92AF92BF92CF92DF92EF9241
:10079000FF920F931F93CF93DF9380917F029091ED
:1007A000800201969093800280937F0220917D02C7
:1007B00030917E028217930708F056C0C0909602CF
:1007C000CC2009F442C080916E0290916F02019694
:1007D00090936F0280936E0220916C0230916D02B3
:1007E0008217930790F110926F0210926E02C0E090
:1007F0002C2F0C2E000C330B80916B0282171306EA
:1008000011F00CF081C0D12C99249394CD2D0D2C96
:10081000000CDD0B80916B028C171D0611F00CF0A3
:1008200085C080918802C0918B02811101C0C2E015
:100830000E946D0C6C2F70E00E94EC0B20916B02FB
:1008400030E040E0892B09F424C18C2DDF91CF9159
:100850001F910F91FF90EF90DF90CF90BF90AF90DE
:100860009F907F906F9008951092800210927F0267
:10087000F12C0F2D0F2C000C110B80917C02801796
:10088000110609F00CF49ACFC80163E070E00E94F1
:10089000BB0BFC01E15AFD4F8389882329F1C80174
:1008A00063E070E00E94BB0BEC01C059DD4F918901
:1008B00080918102981305C09289809182029817D5
:1008C00029F070E060E0CE010E94DD02C80163E023
:1008D00070E00E94BB0BFC01E15AFD4F92899150E0
:1008E000928B97FF03C01A82F394C3CF63E070E04A
:1008F000CE010E94DD02CE010E94EE020097A1F31C
:10090000BE010E944A03F7CFC90163E070E00E9474
:10091000BB0BFC01E15AFD4F8281882329F070E076
:1009200060E0CF010E94DD02CF5F62CFCE0163E0C5
:1009300070E00E94BB0B8C01015A1D4FD80112962A
:100940008C911297882309F483C011968C9111978A
:100950008F5F11968C930E946D0C982F9170990F58
:100960003FEF390FA0919502A1FF14C06091810261
:10097000062E000C770BF8018081432F032E000C0C
:10098000550B480F511D87FD5A956417750711F4D3
:10099000392D391BCE0163E070E00E94BB0BFC01D6
:1009A000E15AFD4F2081230F208327FD04C0809151
:1009B0008302281784F0CE0163E070E00E94BB0B35
:1009C000FC01E15AFD4FA0FF45C027FD2195809114
:1009D0008302821B8083CE0163E070E00E94BB0B28
:1009E0008C01015A1D4FF801918180918402981762
:1009F0002CF462E070E0C8010E94DD02CE0163E0E9
:100A000070E00E94BB0BFC01E15AFD4F2181422F97
:100A1000022E000C550B80918402082E000C990BBD
:100A20000197481759070CF470C080918202821315
:100A300015C0809186028F5F8093860290918C0210
:100A4000891710F01092960281E090E00E943D0319
:100A5000D394DCCE330F231B2083BDCFD801129655
:100A60001C928091880281508093880261E070E03E
:100A700081E892E00E94DD02EBCFCE0163E070E0FE
:100A80000E94BB0BFC01E15AFD4F8281882349F093
:100A90004F5FC42F042E000CDD0BC217D3076CF37D
:100AA000D4CECE0163E070E00E94BB0B8C01015AF2
:100AB0001D4F1182FF24F3940E946D0C9C01CE0106
:100AC00063E070E00E94BB0BFC01E15AFD4F6091B6
:100AD0008302062E000C770BC9010E94EC0B808369
:100AE000F282C8010E94EE02892B31F780918802C0
:100AF0008F5F8093880262E070E0C8010E94DD028F
:100B0000A4CEB901C8010E944A03A0907C02B12C76
:100B100040E0E42F042E000CFF0BEA15FB050CF05F
:100B200097CFCF0163E070E00E94BB0B9C01215A7C
:100B30003D4F7901D90153968C9153978823F9F051
:100B4000CF0163E070E00E94BB0B9C0120593D4F38
:100B500002171307A1F0CE0163E070E00E94BB0B07
:100B6000BC01615A7D4F51969C91DB018C91981389
:100B700006C0F701928911968C91981711F24F5F78
:100B8000C8CF81E00C941F038FEF0C941F032091BA
:100B90007C0230E040E0A42F042E000CBB0BA21717
:100BA000B3070CF00895CD0163E070E00E94BB0B29
:100BB000FC01E15AFD4F8389882311F04F5FEBCF91
:100BC0008091810290918202928B818BCD0163E0B2
:100BD00070E00E94BB0BFC01E15AFD4F81E0838B6A
:100BE000809187028F5F8093870208950F931F93F0
:100BF000CF93DF9300D0CDB7DEB710928002109272
:100C00007F0210926F0210926E0220917C0230E0FF
:100C100040E0842F042E000C990B82179307A4F157
:100C200020916B0230E040E0842F042E000C990BE1
:100C3000821793079CF110E08091830218170CF43F
:100C400046C087FD8F5F85958E7F8093810280915E
:100C5000840281508093820261E070E081E892E03A
:100C60000E94DD0210928802109285021092860284
:100C70001092870281E0809396020F900F90DF918F
:100C8000CF911F910F91089563E070E00E94BB0B1C
:100C9000FC01E15AFD4F138A4F5FBBCF63E070E068
:100CA0000E94BB0BFC01E15AFD4F12824F5FBCCF8B
:100CB00019830A8370E060E0CE0101960E94DD0294
:100CC0000F5F8091840208179CF31F5FB5CF00E08F
:100CD000F8CF8091850208958091870208959C0144
:100CE000CA01FB01AB01480F591FE417F50709F4CE
:100CF0000895B9016F5F7F4FF999FECF32BD21BDD5
:100D0000F89A20B521939B01F0CF9C01CA01FB0109
:100D1000AB01480F591FE417F50709F40895A19195
:100D2000B9016F5F7F4FF999FECF32BD21BDA0BDE4
:100D3000FA9AF99A9B01EFCFE1E6F0E080E8808330
:100D40001082A89584B7877F84BFE0E6F0E08081B9
:100D500088618083108208951092800084E08093DF
:100D60008100109285001092840008958091840083
:100D70009091850008959C01809184009091850058
:100D8000AC01421B530B483E5340B0F708952091ED
:100D9000840030918500820F931F0C94BB06853030
:100DA00098F4673088F421E030E001C0220F6A95A2
:100DB000EAF7E82FF0E0E856FD4F822F809590810A
:100DC00089234111822B80830895853080F4673018
:100DD00070F4E82FF0E0E856FD4F81E090E001C0AC
:100DE000880F6A95EAF79081982381E009F480E002
:100DF000089560919702E62FF0E0E856FD4F80815C
:100E00000E945107809197028F5F853018F480937C
:100E100097020895109297020895E8E9F2E010828F
:100E2000118212821382148208950E942F070C945B
:100E30000D07811105C0662311F0429A089542986A
:100E400008953A9A429A08959C01FC01FF2784A1D3
:100E5000832B84A385A1832B85A381E00895CF9361
:100E6000DF93CFECD1E0899199910E94240781E032
:100E7000CD3DD807C1F783E090E40E94240780E0CD
:100E800090E80E94240783E090E10E94240783E019
:100E900090E80E94240783E090E2DF91CF910C94C8
:100EA0002407E0919D02F0E0EE0FFF1FEB53FE4F91
:100EB00020813181F901FF2795A1932B95A3AFECF8
:100EC000B1E04DED51E02D913D91F901FF2780FFFB
:100ED0001BC025A1932F9095922395A386954A1721
:100EE0005B0789F7E62FF0E0EE0FFF1FEB53FE4F95
:100EF00020813181F901FF2795A1832F80958923D6
:100F000085A360939D02089595A1932BE6CF9C0144
:100F100063307105A1F040F461307105E1F0623099
:100F2000710511F180E0089564307105D9F7F90178
:100F3000FF2784A1832B84A385A1832B09C0F901FA
:100F4000FF2784A1832B84A395A1832F80958923D8
:100F500085A381E00895F901FF2794A1832F80954F
:100F6000982394A395A1F3CFF901FF2794A1832F90
:100F700080958923E0CFE82FF0E0EE0FFF1FE256C7
:100F8000FD4F8081882329F0818191E0892781703C
:100F9000089580E0FCCFE82FF0E0EE0FFF1FE2564F
:100FA000FD4F8081811103C081818170089580E0AF
:100FB000FCCFE82FF0E0EE0FFF1FE256FD4F8081DF
:100FC0000895E82FF0E0EE0FFF1FE256FD4F9081ED
:100FD00081E0892708957F928F929F92AF92BF926E
:100FE000CF92DF92EF92FF920F931F93CF93DF93F5
:100FF000CEE9D2E05DEDC52E51E0D52E66E0762E2D
:1010000088818983F601019111916F015801BB24F8
:10101000F50124A1E12EFF2485A190E08E219F21DE
:1010200030E02E213F21232BB1F133E0832E912C90
:10103000892B19F094E0892E912C64E070E0C801AE
:101040000E94870762E070E0C8010E948707872D31
:101050008A95F1F7F50183A190E0E822F92281E079
:10106000EF2809F080E08883B401C8010E94870757
:101070002296F2E0C83ADF0719F6DF91CF911F916F
:101080000F91FF90EF90DF90CF90BF90AF909F9027
:101090008F907F90089588248394912C892B69F2F6
:1010A00082E0882E912CC9CF0895FC01892B81F014
:1010B0008381681B67FD09C0062E000C770B9481A5
:1010C00081E09617170609F00CF480E0817008950E
:1010D00080E00895FC01A62F622F892B69F18181A0
:1010E000481750F59281291738F59381A91BA7FD60
:1010F00023C00A2E000CBB0B94819A171B06E1F04B
:10110000DCF00E94B20B480F858190E0BD010E9487
:10111000BB0B9C01942F969596959695E20FF31F25
:10112000E90FF11D868190E0477002C09595879583
:101130004A95E2F78170089580E00895182F092FED
:10114000F62E0E94AC060E94B606C12FD02F8E81CB
:101150009F810E94BB06E881F9818A819B81099564
:101160008E819F812C813D81820F931F9F838E836F
:101170000E94B606AC01E12FF02FAFEFBFEF80E089
:101180008F1105C06C2F9D2FC62FD92FE0CF6E2F4A
:101190009F2F268137816A01C21AD30A7FEFC716B3
:1011A0007FE7D70688F3241B350B2A173B0710F47B
:1011B000D901EF018F5F3896E3CF692F0C94E506D4
:1011C00041E0611101C040E0692F0C94CF060C94FE
:1011D000E0085F926F927F928F929F92AF92BF9240
:1011E000CF92DF92EF92FF920F931F93CF93DF93F3
:1011F000862E772E942E682E592EB62EA72E062ECA
:10120000000C770BE82F082E000CFF0B8B010E1B38
:101210001F0B272D072C000C330B492F092E000C18
:10122000550BE901C41BD50B17FF59C0DD24DA9417
:10123000D7FD02C0DD24D3948F01061B170BCC24ED
:10124000CA94D7FF03C0EA01C21BD30B0C171D07BA
:101250006CF1780117FF03C08FEFE81AF80AF594D4
:10126000E794A92E681014C0692D8B2D9A2DDF915B
:10127000CF911F910F91FF90EF90DF90CF90BF9093
:10128000AF909F908F907F906F905F900C94E0084C
:10129000692D862D9A2D0E94E008EC1AFD0AF7FEB2
:1012A00003C0E00EF11EAD0C6C0CDCCF7E01D7FF4D
:1012B00003C09FEFE91AF90AF594E794B82E571482
:1012C00099F2692D8B2D952D0E94E008E01AF10A04
:1012D000F7FE03C0EC0EFD1EBC0C5D0CF0CFCC2461
:1012E000C394DD24DA94D7FDAECFDD24D394AECF02
:1012F000FF920F931F93CF93DF93D82FF92E162FC2
:10130000C72F042F792F0E94E908402F6D2F7C2FC3
:101310008D2F9F2D0E94E908402F612F7C2F812F58
:101320009F2D0E94E908402F612F7C2F8D2F9C2F2D
:10133000DF91CF911F910F91FF900C94E9080E94CB
:101340000D07E4E1F1E0118A14860895DF92EF922F
:10135000FF920F931F93CF93DF93D82E7B01C62F5D
:101360000F2D8091160190911701D0E0019751F156
:10137000CE2DCD0FE0911C01F0911D018181D81778
:1013800008F45CC0D0E0E0911C01F0911D01828165
:10139000D81708F455C0CF5F27C0212F4D2F6D2DD2
:1013A0000E946A08682F8E2D810F902F0E94E008FE
:1013B0001F5F80911C0190911D01FC012281121779
:1013C00060F3DF5F0F2D0D1BE0911C01F0911D01FB
:1013D0008181D81798F0D0E0E0911C01F0911D01B7
:1013E0008281D81768F001508C2F902FDF91CF9118
:1013F0001F910F91FF90EF90DF90089510E0D9CFEB
:1014000060E08E2D8D0F902F0E94E008DF5FE4CF0B
:10141000212F4D2F6D2D0E946A08682F8C2F9F2D34
:10142000910F0E94E0081F5F80911C0190911D01A7
:10143000FC012281121760F3DF5F9ACF10E0F4CF36
:1014400060E08C2F9F2D9D0F0E94E008DF5F9BCFF7
:101450001F93CF93DF93EC0110E08991882341F033
:101460000E94A609BC011F5F853014F477FFF5CFF9
:10147000812FDF91CF911F9108950F931F93CF93E9
:10148000DF93EC01362F272F10922001409321018A
:101490001092240100911C0110911D0101151105EC
:1014A00009F446C0F801818160911A0170911B0115
:1014B00090E00E94BB0BBC0180911E0190911F0126
:1014C0000E94D80BCB016AE070E00E94BB0B9093A6
:1014D000230180932201309318012093190140E2E7
:1014E00050E0BE0185E291E00E94840C80911401DD
:1014F000909115010197E1F4FE0101900020E9F7B8
:101500003197BF016C1B7D0BF80181818F5F0E94B9
:10151000B20B8150209116013091170195E02130D6
:10152000310509F497E0981718F48EEF80932401A1
:10153000DF91CF911F910F91089520911601309165
:10154000170170E02130310509F476E04FEF60E0DB
:101550000C943D0A90E090931B0180931A0108952A
:10156000909315018093140108959093170180932F
:101570001601089590931D0180931C010895809198
:10158000A8029091A90201969093A9028093A802C3
:1015900020912201309123018217930708F441C062
:1015A0001092A9021092A802E0912001F0E0EC5EF6
:1015B000FE4F8189811109C080912101823088F11B
:1015C000815080932101109220018091200190E0B0
:1015D000FC01EC5EFE4F2189222319F14091140198
:1015E000509115012091240141155105E1F0413040
:1015F000510551F1809124018F5F80932401082EC1
:10160000000C990BE0911C01F0911D01218128171C
:1016100019063CF410922401809120018F5F809381
:1016200020010C94F9062111E5CF60911801709109
:1016300019018B5D9E4F0E94280A909120019150C4
:10164000980F90932001D6CF6091180170911901E5
:1016500040911601509117014130510531F4720F3C
:101660008B5D9E4F0E94280AC5CF621BF9CFCF9396
:10167000DF93C4E1D1E09B878A870E94150784E14C
:1016800090E09F838E83DF91CF910C949F09CF933D
:10169000DF9300D000D0CDB7DEB7282FFB018091BB
:1016A0000E0290910F02A0911002B0911102898355
:1016B0009A83AB83BC8350E0A1E0B0E0AC0FBD1FC8
:1016C000A50FB11D3C91311108C010820F900F90F1
:1016D0000F900F90DF91CF910895822F632F0E947A
:1016E000CC0B411104C0231710F4313021F4805D7C
:1016F0008193292F41E05F5FDFCFCDB7DEB76897D9
:101700000FB6F894DEBF0FBECDBFFE01339686E163
:10171000DF011D928A95E9F786E690E09A83898336
:101720008EE390E09E838D8387EE91E09A87898790
:1017300088E391E09E878D8727EF30E03A8B298BF5
:101740009E8B8D8B0E949C0663E0CE0101960E94C9
:101750009E0890E080E068960FB6F894DEBF0FBE5A
:10176000CDBF0895002480FD060E660F11F086950A
:10177000D1F7802D08950024552704C0080E591F65
:10178000880F991F009729F076956795B8F3710532
:10179000B9F7802D952F0895991B79E004C0991F02
:1017A000961708F0961B881F7A95C9F780950895BB
:1017B000AA1BBB1B51E107C0AA1FBB1FA617B70777
:1017C00010F0A61BB70B881F991F5A95A9F7809593
:1017D0009095BC01CD01089597FB072E16F4009457
:1017E00007D077FD09D00E94D80B07FC05D03EF446
:1017F000909581959F4F0895709561957F4F0895BD
:10180000CF92DF92EF92FF92CF93DF93CDB7DEB707
:101810002A970FB6F894DEBF0FBECDBF89879A878F
:10182000A985BA858D919D910D90BC91A02D89833C
:101830009A83AB83BC83892B8A2B8B2B41F484E264
:1018400099EDABE5B7E089839A83AB83BC8369816B
:101850007A818B819C812DE133EF41E050E00E9441
:10186000AC0C2D833E834F83588769837A838B83A7
:101870009C8327EA31E440E050E00E94930C6B0126
:101880007C012CEE34EF4FEF5FEF6D817E818F8115
:1018900098850E94930CDC01CB018C0D9D1DAE1D23
:1018A000BF1DB7FF03C00197A109B048E985FA85BC
:1018B00080839183A283B3839F772A960FB6F8948F
:1018C000DEBF0FBECDBFDF91CF91FF90EF90DF90D5
:1018D000CF9008950E94000C089585E491E00E9445
:1018E000000C0895B0E0A0E080934501909346017C
:1018F000A0934701B09348010895FB01DC010190DA
:101900000D920020E1F70895FB01DC0141505040A9
:1019100048F001900D920020C9F701C01D9241507E
:101920005040E0F70895EE27FF27AA27BB2708C0FD
:10193000A20FB31FE41FF51F220F331F441F551FB3
:10194000969587957795679598F37040A9F70097D6
:1019500099F7BD01CF010895052E97FB1EF4009461
:101960000E94C30C57FD07D00E94CB0C07FC03D08C
:101970004EF40C94C30C50954095309521953F4FF3
:101980004F4F5F4F089590958095709561957F4F6B
:101990008F4F9F4F0895A1E21A2EAA1BBB1BFD017A
:1019A0000DC0AA1FBB1FEE1FFF1FA217B307E4073E
:1019B000F50720F0A21BB30BE40BF50B661F771F96
:1019C000881F991F1A9469F7609570958095909576
:0E19D0009B01AC01BD01CF010895F894FFCF3B
:1019DE0001000505050501010505050501010303C6
:1019EE0003010101000000000000140000000000CF
:1019FE0000000000000000000000000000000000D9
:101A0E0000000000000000000000000000000000C8
:101A1E00000000000001000000010305203B020051
:101A2E00009220EB737D5FDE3DA552EA7A14004AE8
:101A3E00222229BA2ED0050014C0010020A4126A59
:101A4E002B9A74A372A338ED498F38CE2AA712AA07
:101A5E002AAE49100410145444380E11152A2500CC
:101A6E0000EA5BEB3A4F726B3BCF73CF134F7AEDBD
:101A7E005B9774247B5D564972FD5B6F5B6F7BEFEA
:101A8E00136F7FEF57CE3897246D7B6D2BED5FADC7
:101A9E005AAD24A772034000800310038003200078
:101AAE004000200010000800040002000103800323
:101ABE004003200080031047414D45204F564552AC
:101ACE002000535041434559205245414459205618
:101ADE00312E36204259204D504820004C00640AC9
:021AEE000100F5
:00000001FF
