:100000000C943A000C9457000C9457000C94570031
:100010000C9457000C9457000C9457000C94570004
:100020000C9457000C9457000C9457000C945700F4
:100030000C9457000C9457000C9457000C945700E4
:100040000C9457000C9457000C9457000C945700D4
:100050000C9457000C9457000C9457000C945700C4
:100060000C9457000C9457000C9457000C945700B4
:100070000C94570011241FBECFEFD4E0DEBFCDBFDC
:1000800012E0A0E0B1E0E4E1FEE102C005900D92D3
:10009000AA3CB107D9F723E0AAECB2E001C01D9257
:1000A000A438B207E1F70E94650D0C94080F0C9478
:1000B0000000DC01E62F842F65E00E94CD0DE80FE3
:1000C000EA0FFB2FF11D20830895EF92FF920F930B
:1000D0001F93CF93DF938091EE0281114CC08CE28D
:1000E00091E00E941F0D84EF91E00E94A20C81E03C
:1000F00090E00E94980C81E090E00E949D0C8AE0C4
:100100000E94920CC6EDD2E02EECE22E22E0F22EFE
:100110000AEC12E0CE010E941203F7018193919341
:100120007F01F80111928F012696F2E0CE3EDF07A3
:1001300089F7E4E1F3E0119283E0E733F807D9F7B8
:100140006EE071E08091D0029091D1020E94B702DE
:1001500064E171E08091D4029091D5020E94B702CF
:100160006AE171E08091D2029091D3020E94B702BD
:1001700081E08093EE0280910C0190910D01039734
:1001800069F5C0EDD2E00BEC12E096EDE92E92E0BD
:10019000F92E899199910E94CA02F80181938F01E9
:1001A000EC16FD06B1F7D0E084E1E82E83E0F82EEE
:1001B0008701C0E0F801E0810F5F1F4FF0E0E653D8
:1001C000FD4F6081CE010E94C80ACF5FC53091F714
:1001D000F5E0EF0EF11CDF5FD73051F7DF91CF91E3
:1001E0001F910F91FF90EF900C94A70C809110033A
:1001F000909111030C94E108CB01892B21F061301F
:10020000710549F0089569E972E0809110039091B9
:1002100011030C94B8086CE972E0F7CF0F931F93A9
:10022000CF93DF93CDB7DEB7AC970FB6F894DEBFB0
:100230000FBECDBF8091F102811129C00E945E07DF
:1002400061E080E00E94560742E050E067E373E01F
:1002500090E080E00E94AC06809137038F3F21F44C
:10026000109237031092380304E113E029E530E0DF
:1002700047E065E084E690E00E94CF0370E060E034
:100280008CEF90E00E94F60381E08093F102809170
:100290000C0190910D0183309105E9F090F48130CB
:1002A000910509F458C0029709F464C0AC960FB6E2
:1002B000F894DEBF0FBECDBFDF91CF911F910F919C
:1002C0000895049799F78091F0028F5F8093F00270
:1002D000883C60F34CC00E94FD038111E7CF6EE9BA
:1002E00072E0CE0101960E94980EFE013196808147
:1002F0008F0131968111FBCF0E94A60640E0B80124
:100300000E942F0DF80180810F5F1F4F8111FACFDE
:100310008FE280830E94A90640E0B8010E942F0D61
:100320000E94870BCE0101960E94850C65E571E065
:1003300080911003909111030E94B8081092F0026E
:1003400061E080E00E94560784E090E090930D0108
:1003500080930C01ABCF89EA92E00E94850C6EE994
:1003600071E080911003909111030E94B80885E01C
:1003700090E0ECCF0E94870B809138038F5F8093D1
:1003800038038091370310E08330A9F138F58130CC
:1003900069F1823071F104E083E00E94C003802F94
:1003A0000E94BD03812F0E94CC030E94330642E0CD
:1003B00050E067E373E090E080E00E94C20668ECE2
:1003C00072E080911003909111030E94B80860E0E0
:1003D00080E00E94560783E090E0B8CF843059F067
:1003E0008530C9F6136002E084E0D7CF126003E0E5
:1003F000D3CF1160FCCF136003E0CFCFCF93DF9357
:10040000D62FC72FA3ECB2E09D9191110BC040E015
:100410000E942F0D0E94870B8D2F9C2FDF91CF9173
:100420000C94850CFB019193BF01EECFCF93DF932A
:10043000CDB7DEB7AC970FB6F894DEBF0FBECDBF19
:100440008091EF02811105C00E94910881E08093A4
:10045000EF020E94280881E00E94F8078823C1F07B
:1004600080910C0190910D018330910509F461C0D8
:10047000069771F480913703843018F48F5F80936E
:100480003703BE016F5F7F4F809137030E94FE01EB
:1004900083E00E94F8078823C1F080910C019091BD
:1004A0000D018330910509F447C0069771F48091DE
:1004B0003703823018F0815080933703BE016F5F9D
:1004C0007F4F809137030E94FE0183E00E94F8076E
:1004D000882399F080910C0190910D01059769F4A2
:1004E00086E090E090930D0180930C01BE016F5F58
:1004F0007F4F809137030E94FE0184E00E94F8073D
:10050000882371F080910C0190910D018530910547
:10051000B1F086309105D1F0039711F40E940406E2
:10052000AC960FB6F894DEBF0FBECDBFDF91CF9172
:1005300008950E94FE05ACCF0E940106C6CF82E05E
:1005400090E090930D0180930C01EACF85E090E05C
:10055000F8CF80911203909113030E94260A8823FA
:1005600019F05C9A5E9808955C985E9A0895FC0173
:1005700071836083128213821482158281E0089550
:10058000FC01808191810895FC01128213826483B1
:1005900081E00895FC01A081B181109709F440C069
:1005A00082818F5F82839C91891730F012828581CE
:1005B0008F5F8830B0F48583928111968C9111976A
:1005C000981760F4938113968C911397981730F4D1
:1005D00081E0248114969C91291708F080E08170B5
:1005E0000895158283818F5F838312969C91129761
:1005F000891710F3138284818F5F848315969C91F1
:100600001597911109C014969C9114978917A0F21F
:100610001182108281E00895891770F21482CCCF84
:1006200080E00895FC0111821082128213821482EC
:1006300015820895CF93DF93DC019B01C9E3D3E0DA
:10064000EEA5FFA511964C9111976C9188A999A9D7
:10065000DF91CF9109940F931F93CF93DF93FC0108
:100660000091450310E040E0A42F042E000CBB0BCA
:10067000A017B10744F030E020E0C901DF91CF912D
:100680001F910F910895CD0163E070E00E94D60D97
:10069000EC01C75CDC4F8A81882361F09E01CE1794
:1006A000DF0741F098818081981304C0998181818E
:1006B000981719F34F5FD8CFCF93C82F70E060E041
:1006C0008BE593E00E941A0380915B038C0F90915D
:1006D0005D0389176CF487FF02C08FEF890F809349
:1006E0005B0361E070E08BE593E0CF910C941A031B
:1006F00080E0F5CFBC01E0916B03F0916C03309783
:1007000029F080916D0390916E0309940895FB0187
:10071000DC0112961C92A9E3B3E099968C9199970B
:10072000815099968C93999796968C9196978F5F16
:1007300096968C93128270E060E0CF010E941A03BB
:1007400090E080E00C947A03809366030895E9E3D7
:10075000F3E0682F70E082A593A50E94F30D7687E1
:1007600065870895E9E3F3E0682F70E082A593A51B
:100770000E94F30D778F668F089580936503089527
:10078000853008F084E0809345030895853008F0B3
:1007900084E080935603089580936F0308950F9328
:1007A0001F93CF93DF93C9E3D3E06CA34DA33FA77F
:1007B0002EA719AB08AB9BA78AA71BAA1AAA8EA9BA
:1007C0008C7F8EAB1FAA83E08C8782E08D8F80E1C7
:1007D0000E94B20382E00E94A70384E08CA785E018
:1007E0008DA7DF91CF911F910F910895E9E3F3E079
:1007F00093AB82AB75AB64AB08956F927F929F927F
:10080000AF92BF92CF92DF92EF92FF920F931F931E
:10081000CF93DF938091590390915A03019690935F
:100820005A0380935903209157033091580382173C
:10083000930708F056C0C0907003CC2009F442C062
:1008400080914803909149030196909349038093C6
:10085000480320914603309147038217930790F194
:100860001092490310924803C0E02C2F0C2E000C6C
:10087000330B809145038217130611F00CF081C0F1
:10088000D12C99249394CD2D0D2C000CDD0B80914F
:1008900045038C171D0611F00CF085C08091620392
:1008A000C0916503811101C0C2E00E94880E6C2FC7
:1008B00070E00E94070E2091450330E040E0892B54
:1008C00009F424C18C2DDF91CF911F910F91FF90DE
:1008D000EF90DF90CF90BF90AF909F907F906F9000
:1008E000089510925A0310925903F12C0F2D0F2CDA
:1008F000000C110B809156038017110609F00CF4BF
:100900009ACFC80163E070E00E94D60DFC01E75C5D
:10091000FC4F8389882329F1C80163E070E00E94BD
:10092000D60DEC01C65BDC4F918980915B03981377
:1009300005C0928980915C03981729F070E060E00F
:10094000CE010E941A03C80163E070E00E94D60D38
:10095000FC01E75CFC4F92899150928B97FF03C09A
:100960001A82F394C3CF63E070E0CE010E941A03B1
:10097000CE010E942B030097A1F3BE010E948703C2
:10098000F7CFC90163E070E00E94D60DFC01E75C7F
:10099000FC4F8281882329F070E060E0CF010E9443
:1009A0001A03CF5F62CFCE0163E070E00E94D60DE4
:1009B0008C01075C1C4FD80112968C9112978823EA
:1009C00009F483C011968C9111978F5F11968C93C7
:1009D0000E94880E982F9170990F3FEF390FA091C8
:1009E0006F03A1FF14C060915B03062E000C770B10
:1009F000F8018081432F032E000C550B480F511D29
:100A000087FD5A956417750711F4392D391BCE01EE
:100A100063E070E00E94D60DFC01E75CFC4F208192
:100A2000230F208327FD04C080915D03281784F0E5
:100A3000CE0163E070E00E94D60DFC01E75CFC4F44
:100A4000A0FF45C027FD219580915D03821B808317
:100A5000CE0163E070E00E94D60D8C01075C1C4F54
:100A6000F801918180915E0398172CF462E070E0A8
:100A7000C8010E941A03CE0163E070E00E94D60D07
:100A8000FC01E75CFC4F2181422F022E000C550B2C
:100A900080915E03082E000C990B019748175907A7
:100AA0000CF470C080915C03821315C080916003C8
:100AB0008F5F8093600390916603891710F0109206
:100AC000700381E090E00E947A03D394DCCE330F70
:100AD000231B2083BDCFD80112961C928091620304
:100AE00081508093620361E070E08BE593E00E94A7
:100AF0001A03EBCFCE0163E070E00E94D60DFC013B
:100B0000E75CFC4F8281882349F04F5FC42F042E9D
:100B1000000CDD0BC217D3076CF3D4CECE0163E01B
:100B200070E00E94D60D8C01075C1C4F1182FF24DF
:100B3000F3940E94880E9C01CE0163E070E00E9455
:100B4000D60DFC01E75CFC4F60915D03062E000CA6
:100B5000770BC9010E94070E8083F282C8010E94B0
:100B60002B03892B31F7809162038F5F809362039F
:100B700062E070E0C8010E941A03A4CEB901C80166
:100B80000E948703A0905603B12C40E0E42F042E6E
:100B9000000CFF0BEA15FB050CF097CFCF0163E0CB
:100BA00070E00E94D60D9C01275C3C4F7901D90171
:100BB00053968C9153978823F9F0CF0163E070E04E
:100BC0000E94D60D9C01265B3C4F02171307A1F033
:100BD000CE0163E070E00E94D60DBC01675C7C4FE3
:100BE00051969C91DB018C91981306C0F701928974
:100BF00011968C91981711F24F5FC8CF81E00C9439
:100C00005C038FEF0C945C032091560330E040E0CE
:100C1000A42F042E000CBB0BA217B3070CF00895F1
:100C2000CD0163E070E00E94D60DFC01E75CFC4F53
:100C30008389882311F04F5FEBCF80915B03909104
:100C40005C03928B818BCD0163E070E00E94D60D36
:100C5000FC01E75CFC4F81E0838B809161038F5F37
:100C60008093610308950F931F93CF93DF9300D078
:100C7000CDB7DEB710925A03109259031092490370
:100C8000109248032091560330E040E0842F042E58
:100C9000000C990B82179307A4F12091450330E0D3
:100CA00040E0842F042E000C990B821793079CF1CF
:100CB00010E080915D0318170CF446C087FD8F5F2C
:100CC00085958E7F80935B0380915E038150809336
:100CD0005C0361E070E08BE593E00E941A031092E0
:100CE000620310925F03109260031092610381E02F
:100CF000809370030F900F90DF91CF911F910F9110
:100D0000089563E070E00E94D60DFC01E75CFC4FA3
:100D1000138A4F5FBBCF63E070E00E94D60DFC01E9
:100D2000E75CFC4F12824F5FBCCF19830A8370E0EF
:100D300060E0CE0101960E941A030F5F80915E036E
:100D400008179CF31F5FB5CF00E0F8CF80915F03D9
:100D500008958091610308959C01CA01FB01AB01D4
:100D6000480F591FE417F50709F40895B9016F5F9B
:100D70007F4FF999FECF32BD21BDF89A20B521935E
:100D80009B01F0CF9C01CA01FB01AB01480F591F29
:100D9000E417F50709F40895A191B9016F5F7F4F3A
:100DA000F999FECF32BD21BDA0BDFA9AF99A9B01F7
:100DB000EFCFE1E6F0E080E880831082A89584B769
:100DC000877F84BFE0E6F0E08081886180831082C5
:100DD00008951092800084E0809381001092850035
:100DE0001092840008958091840090918500089568
:100DF0009C018091840090918500AC01421B530BB3
:100E0000483E5340B0F7089520918400309185000A
:100E1000820F931F0C94F806853098F4673088F49D
:100E200021E030E001C0220F6A95EAF7E82FF0E0F8
:100E3000EE58FC4F822F8095908189234111822B9F
:100E400080830895853080F4673070F4E82FF0E0F7
:100E5000EE58FC4F81E090E001C0880F6A95EAF7F8
:100E60009081982381E009F480E0089560917103F6
:100E7000E62FF0E0EE58FC4F80810E948E078091B3
:100E800071038F5F853018F4809371030895109279
:100E900071030895E2E7F3E0108211821282138257
:100EA000148208950E946C070C944A07811105C0B2
:100EB000662311F0429A0895429808953A9A429A08
:100EC00008959C01FC01FF2784A1832B84A385A1A5
:100ED000832B85A381E00895CF93DF93CAE7D2E007
:100EE000899199910E94610782E0C838D807C1F7BB
:100EF00083E090E40E94610780E090E80E9461072F
:100F000083E090E10E94610783E090E80E9461071E
:100F100083E090E2DF91CF910C946107E091770339
:100F2000F0E0EE0FFF1FE059FD4F20813181F90104
:100F3000FF2795A1932B95A3AAE7B2E048E852E0DA
:100F40002D913D91F901FF2780FF1BC025A1932F13
:100F50009095922395A386954A175B0789F7E62F0C
:100F6000F0E0EE0FFF1FE059FD4F20813181F901C4
:100F7000FF2795A1832F8095892385A3609377030D
:100F8000089595A1932BE6CF9C0163307105A1F0E4
:100F900040F461307105E1F06230710511F180E0DB
:100FA000089564307105D9F7F901FF2784A1832BD7
:100FB00084A385A1832B09C0F901FF2784A1832B7A
:100FC00084A395A1832F8095892385A381E008952B
:100FD000F901FF2794A1832F8095982394A395A1CD
:100FE000F3CFF901FF2794A1832F80958923E0CFC8
:100FF000E82FF0E0EE0FFF1FE858FC4F80818823B8
:1010000029F0818191E089278170089580E0FCCFEB
:10101000E82FF0E0EE0FFF1FE858FC4F80818111B0
:1010200003C081818170089580E0FCCFE82FF0E05B
:10103000EE0FFF1FE858FC4F80810895E82FF0E085
:10104000EE0FFF1FE858FC4F908181E0892708953B
:101050007F928F929F92AF92BF92CF92DF92EF9248
:10106000FF920F931F93CF93DF93C8E7D3E058E825
:10107000C52E52E0D52E66E0762E88818983F60152
:10108000019111916F015801BB24F50124A1E12EBA
:10109000FF2485A190E08E219F2130E02E213F2169
:1010A000232BB1F133E0832E912C892B19F094E09E
:1010B000892E912C64E070E0C8010E94C40762E0B0
:1010C00070E0C8010E94C407872D8A95F1F7F501E9
:1010D00083A190E0E822F92281E0EF2809F080E086
:1010E0008883B401C8010E94C4072296F3E0C23885
:1010F000DF0719F6DF91CF911F910F91FF90EF90CD
:10110000DF90CF90BF90AF909F908F907F90089589
:1011100088248394912C892B69F282E0882E912C6B
:10112000C9CF0895FC018589968960EF70E00E941F
:10113000D60D9C018685648570E090E00E94D60DF6
:10114000BC01660F771F660F771FC9010E94F30D60
:1011500063830895CF93DF93EC01E989FA8940E036
:101160006D858B899C8909951D86DF91CF910895A6
:10117000CF93DF93EC016F8378876D837E831A862C
:1011800019861B8684E0888B8C87CE010E9492088A
:10119000CE010E94AA081982188281E08A83DF9119
:1011A000CF910895FC0166870C949208FC01678733
:1011B0000895FC0181E025813681232B09F480E02C
:1011C0000895CF92DF92EF92FF920F931F93CF93E8
:1011D000DF93EC010D811E810115110521F188813C
:1011E0009981009781F0019799838883892BD9F49D
:1011F000CE01DF91CF911F910F91FF90EF90DF9083
:10120000CF900C94AA08EA80EE2069F0EA94EA8272
:10121000E11009C0F801A081A1110EC0CE010E9409
:10122000AA081E830D83DF91CF911F910F91FF902C
:10123000EF90DF90CF9008954181433259F10F5FD5
:101240001F4FF80120812B3211F02D3231F50F5F45
:101250001F4FF80180E030E08F016F019FEFC91A46
:10126000D90A908150ED590F5A30C8F0AE3309F4C5
:1012700049C024F5AA3309F459C0CCF4A03209F4CA
:101280006DC0AA3271F6882329F28C87CE010E94A4
:101290009208C0CF0E5F1F4FD4CF20E0DACF6AE0B4
:1012A0000E94CD0D8053890FF60131E0D5CFAC33CC
:1012B00009F0B7CFFA87E9871B86ACCFA83454F47E
:1012C000A134BCF5A03409F0ACCF882309F4A2CF37
:1012D0008E87DCCFAB3509F0A4CF2B85022E000C16
:1012E000330B8150990B2817390709F493CF8F01DD
:1012F0008191882309F48ECF8B3509F48BCF8E33FF
:10130000B1F788CF2B852F5F2B87811101C082E039
:10131000022E000C330B8217130609F00CF47ACF5F
:1013200009851A850115110509F074CF0F811885FB
:1013300071CF0A2E000CBB0BAF5ABD4F9C914332AC
:1013400009F49F5F3111888B2B3279F5945F88897E
:101350008F5F6CE00E94CD0DE82EE90E91E09E1BA0
:101360008F01692F6E0F808131968F32C9F3F62E6F
:10137000FF0CFF0C8E32E9F48F2D8695F80E8F014D
:10138000E989FA894F856E2D8B899C890995ED86AF
:101390002C812A838B816F2D70E090E00E94D60D06
:1013A000821B9109998388833CCF2D3281F69C5012
:1013B000CECF8C3229F78F01F694E2CFFC01CB011E
:1013C000658B968B528B418B348B238B24E627873E
:1013D000158611821082128262E370E00E94D60D9F
:1013E00068EE73E00E94F30D648384E0848788ECE8
:1013F0008687CF010895FC01618342830895FC0133
:10140000662311F0411103C01182128208956832DF
:10141000D0F028ED260F822F6CE00E94E70D982F68
:1014200064EF0E94CD0D682F620FA581B681A60FD3
:10143000B11D8C91915040F48183642F70E090E055
:101440000E94D60D928308958695F4CFFC01808189
:101450008F5F80839181891708F0108281E020815D
:101460009281291708F080E00895FC01748363835A
:1014700056834583118212820895FC01892B81F0E5
:101480008381681B67FD09C0062E000C770B9481D1
:1014900081E09617170609F00CF480E0817008953A
:1014A00080E00895FC01A62F622F892B69F18181CC
:1014B000481750F59281291738F59381A91BA7FD8C
:1014C00023C00A2E000CBB0B94819A171B06E1F077
:1014D000DCF00E94CD0D480F858190E0BD010E9497
:1014E000D60D9C01942F969596959695E20FF31F35
:1014F000E90FF11D868190E0477002C095958795B0
:101500004A95E2F78170089580E00895182F092F19
:10151000F62E0E94E9060E94F306C12FD02F8E817D
:101520009F810E94F806E881F9818A819B81099553
:101530008E819F812C813D81820F931F9F838E839B
:101540000E94F306AC01E12FF02FAFEFBFEF80E078
:101550008F1105C06C2F9D2FC62FD92FE0CF6E2F76
:101560009F2F268137816A01C21AD30A7FEFC716DF
:101570007FE7D70688F3241B350B2A173B0710F4A7
:10158000D901EF018F5F3896E3CF692F0C942207C2
:1015900041E0611101C040E0692F0C940C070C94EC
:1015A000C80A5F926F927F928F929F92AF92BF9282
:1015B000CF92DF92EF92FF920F931F93CF93DF931F
:1015C000862E772E942E682E592EB62EA72E062EF6
:1015D000000C770BE82F082E000CFF0B8B010E1B65
:1015E0001F0B272D072C000C330B492F092E000C45
:1015F000550BE901C41BD50B17FF59C0DD24DA9444
:10160000D7FD02C0DD24D3948F01061B170BCC2419
:10161000CA94D7FF03C0EA01C21BD30B0C171D07E6
:101620006CF1780117FF03C08FEFE81AF80AF59400
:10163000E794A92E681014C0692D8B2D9A2DDF9187
:10164000CF911F910F91FF90EF90DF90CF90BF90BF
:10165000AF909F908F907F906F905F900C94C80A8E
:10166000692D862D9A2D0E94C80AEC1AFD0AF7FEF4
:1016700003C0E00EF11EAD0C6C0CDCCF7E01D7FF79
:1016800003C09FEFE91AF90AF594E794B82E5714AE
:1016900099F2692D8B2D952D0E94C80AE01AF10A46
:1016A000F7FE03C0EC0EFD1EBC0C5D0CF0CFCC248D
:1016B000C394DD24DA94D7FDAECFDD24D394AECF2E
:1016C000FF920F931F93CF93DF93D82FF92E162FEE
:1016D000C72F042F792F0E94D10A402F6D2F7C2F06
:1016E0008D2F9F2D0E94D10A402F612F7C2F812F9B
:1016F0009F2D0E94D10A402F612F7C2F8D2F9C2F70
:10170000DF91CF911F910F91FF900C94D10A0E940D
:101710004A07E0E2F1E0118A14860895DF92EF9221
:10172000FF920F931F93CF93DF93D82E7B01C62F89
:101730000F2D8091220190912301D0E0019751F16A
:10174000CE2DCD0FE0912801F09129018181D8178C
:1017500008F45CC0D0E0E0912801F0912901828179
:10176000D81708F455C0CF5F27C0212F4D2F6D2DFE
:101770000E94520A682F8E2D810F902F0E94C80A56
:101780001F5F8091280190912901FC01228112178D
:1017900060F3DF5F0F2D0D1BE0912801F09129010F
:1017A0008181D81798F0D0E0E0912801F0912901CB
:1017B0008281D81768F001508C2F902FDF91CF9144
:1017C0001F910F91FF90EF90DF90089510E0D9CF17
:1017D00060E08E2D8D0F902F0E94C80ADF5FE4CF4E
:1017E000212F4D2F6D2D0E94520A682F8C2F9F2D77
:1017F000910F0E94C80A1F5F8091280190912901D2
:10180000FC012281121760F3DF5F9ACF10E0F4CF62
:1018100060E08C2F9F2D9D0F0E94C80ADF5F9BCF39
:101820001F93CF93DF93EC0110E08991882341F05F
:101830000E948E0BBC011F5F853014F477FFF5CF3B
:10184000812FDF91CF911F9108950F931F93CF9315
:10185000DF93EC01362F272F10922C0140932D019E
:1018600010923001009128011091290101151105F4
:1018700009F446C0F8018181609126017091270129
:1018800090E00E94D60DBC0180912A0190912B011D
:101890000E94F30DCB016AE070E00E94D60D909398
:1018A0002F0180932E01309324012093250140E2E3
:1018B00050E0BE0181E391E00E949F0E80912001E3
:1018C000909121010197E1F4FE0101900020E9F7D8
:1018D0003197BF016C1B7D0BF80181818F5F0E94E6
:1018E000CD0D8150209122013091230195E02130CE
:1018F000310509F497E0981718F48EEF80933001C2
:10190000DF91CF911F910F91089520912201309185
:10191000230170E02130310509F476E04FEF60E0FB
:101920000C94250C90E09093270180932601089554
:101930009093210180932001089590932301809337
:1019400022010895909329018093280108958091A0
:101950008203909183030196909383038093820383
:1019600020912E0130912F018217930708F441C076
:101970001092830310928203E0912C01F0E0E05E6C
:10198000FE4F8189811109C080912D01823088F13B
:10199000815080932D0110922C0180912C0190E0B8
:1019A000FC01E05EFE4F2189222319F140912001C4
:1019B000509121012091300141155105E1F0413054
:1019C000510551F1809130018F5F80933001082ED5
:1019D000000C990BE0912801F09129012181281731
:1019E00019063CF41092300180912C018F5F809396
:1019F0002C010C9436072111E5CF609124017091E0
:101A000025018F5C9E4F0E94100C90912C019150EB
:101A1000980F90932C01D6CF6091240170912501ED
:101A200040912201509123014130510531F4720F50
:101A30008F5C9E4F0E94100CC5CF621BF9CFCF93D5
:101A4000DF93C0E2D1E09B878A870E94520784E13E
:101A500090E09F838E83DF91CF910C94870BCF937F
:101A6000DF9300D000D0CDB7DEB7282FFB018091E7
:101A7000C5029091C602A091C702B091C8028983A5
:101A80009A83AB83BC8350E0A1E0B0E0AC0FBD1FF4
:101A9000A50FB11D3C91311108C010820F900F901D
:101AA0000F900F90DF91CF910895822F632F0E94A6
:101AB000E70D411104C0231710F4313021F4805D8B
:101AC0008193292F41E05F5FDFCFCDB7DEB7A897C5
:101AD0000FB6F894DEBF0FBECDBFFE01339686E28F
:101AE000DF011D928A95E9F789EA92E09A8389835A
:101AF00086E090E09E838D8386EF90E09A878987C9
:101B000088E391E09E878D8725E630E03A8B298B2C
:101B100028E630E03E8B2D8B26E132E03A8F298F8C
:101B20002AE136E03E8F2D8F2EE031E03AA329A343
:101B30009EA38DA30E94D90640E051E068E873E1BE
:101B400082EF92E00E94350A909313038093120370
:101B5000549A5C98569A5E98209112033091130320
:101B60004FEF59E064E670E089EF92E00E94DE09F1
:101B7000809310039093110368EC0E94D20865E0F3
:101B8000CE0101960E94860A90E080E0A8960FB6EA
:101B9000F894DEBF0FBECDBF0895002480FD060E71
:101BA000660F11F08695D1F7802D089500245527F2
:101BB00004C0080E591F880F991F009729F07695C9
:101BC0006795B8F37105B9F7802D952F0895991B86
:101BD00079E004C0991F961708F0961B881F7A9524
:101BE000C9F780950895AA1BBB1B51E107C0AA1F26
:101BF000BB1FA617B70710F0A61BB70B881F991FAE
:101C00005A95A9F780959095BC01CD01089597FB51
:101C1000072E16F4009407D077FD09D00E94F30D2B
:101C200007FC05D03EF4909581959F4F08957095DF
:101C300061957F4F0895CF92DF92EF92FF92CF93FD
:101C4000DF93CDB7DEB72A970FB6F894DEBF0FBE8D
:101C5000CDBF89879A87A985BA858D919D910D9071
:101C6000BC91A02D89839A83AB83BC83892B8A2B5B
:101C70008B2B41F484E299EDABE5B7E089839A833D
:101C8000AB83BC8369817A818B819C812DE133EFA9
:101C900041E050E00E94C70E2D833E834F8358875A
:101CA00069837A838B839C8327EA31E440E050E0A8
:101CB0000E94AE0E6B017C012CEE34EF4FEF5FEF14
:101CC0006D817E818F8198850E94AE0EDC01CB01F3
:101CD0008C0D9D1DAE1DBF1DB7FF03C00197A1094F
:101CE000B048E985FA8580839183A283B3839F7787
:101CF0002A960FB6F894DEBF0FBECDBFDF91CF910D
:101D0000FF90EF90DF90CF9008950E941B0E0895F2
:101D100081E591E00E941B0E0895B0E0A0E0809361
:101D2000510190935201A0935301B093540108952F
:101D3000FB01DC0101900D920020E1F70895FB0109
:101D4000DC014150504048F001900D920020C9F74D
:101D500001C01D9241505040E0F70895EE27FF2743
:101D6000AA27BB2708C0A20FB31FE41FF51F220F2D
:101D7000331F441F551F969587957795679598F360
:101D80007040A9F7009799F7BD01CF010895052E7E
:101D900097FB1EF400940E94DE0E57FD07D00E94B0
:101DA000E60E07FC03D04EF40C94DE0E50954095E1
:101DB000309521953F4F4F4F5F4F089590958095F7
:101DC000709561957F4F8F4F9F4F0895A1E21A2E16
:101DD000AA1BBB1BFD010DC0AA1FBB1FEE1FFF1FCF
:101DE000A217B307E407F50720F0A21BB30BE40B1F
:101DF000F50B661F771F881F991F1A9469F7609566
:101E00007095809590959B01AC01BD01CF0108951F
:041E1000F894FFCF74
:101E14003D393633302D2B28262422200100050598
:101E24000505010105050505010103030301010180
:101E3400000000000000140000000000000000008A
:101E4400000000000000000000000000000000008E
:101E5400000000000000000000000000000000007E
:101E640000010000002A383C472F2F2F3E333C440A
:101E7400232F2F4123472F2F2F3E32202F2F2F4444
:101E84002B2F2F2F442B2F2F2F442B2F2F2F442337
:101E94002B2F2F412346232F2F2F44232F2F412332
:101EA400472F2F2F202F2F2F202020203E002A388D
:101EB400453345424245324542334244444141441C
:101EC4003444413341413241453345414142424327
:101ED40034434233424141474745454242453245F6
:101EE4004233424444414144344441334141324108
:101EF40045334541414242433443423342414142E6
:101F0400423E2000010305203B0200009220EB73B7
:101F14007D5FDE3DA552EA7A14004A222229BA2EB8
:101F2400D0050014C0010020A4126A2B9A74A37275
:101F3400A338ED498F38CE2AA712AA2AAE49100435
:101F440010145444380E11152A250000EA5BEB3AAC
:101F54004F726B3BCF73CF134F7AED5B9774247B37
:101F64005D564972FD5B6F5B6F7BEF136F7FEF57BD
:101F7400CE3897246D7B6D2BED5FAD5AAD24A772DF
:101F84000340008003100380032000400020001061
:101F940000080004000200010380034003200080C5
:101FA4000310090B0002040507432B0043004741BB
:101FB4004D45204F5645522000535041434559202A
:101FC40052454144592056312E36204259204D5015
:0A1FD4004820004C00640A010000E0
:00000001FF
