:100000000C943A000C9457000C9457000C94570031
:100010000C9457000C9457000C9457000C94570004
:100020000C9457000C9457000C9457000C945700F4
:100030000C9457000C9457000C9457000C945700E4
:100040000C9457000C9457000C9457000C945700D4
:100050000C9457000C9457000C9457000C945700C4
:100060000C9457000C9457000C9457000C945700B4
:100070000C94570011241FBECFEFD4E0DEBFCDBFDC
:1000800011E0A0E0B1E0EAE6FAE002C005900D92CE
:10009000A83CB107D9F721E0A8ECB1E001C01D925E
:1000A000A63DB207E1F70E94AB040C9433050C9413
:1000B00000000C942304CF93DF9300D00F92CDB7B0
:1000C000DEB78091CA0181110AC01092C901109255
:1000D000C8010F900F900F90DF91CF9108958091FC
:1000E000C8019091C901EAE0F0E0BF010E9410054B
:1000F000282FCB01BF010E941005805D8983205D00
:100100002A831B82CE0101960E9401048091C801BE
:100110009091C90101969093C9018093C801D9CFEC
:100120000E94FF0080E00E94D100882331F080917E
:10013000CA0191E089278093CA010895E1E6F0E0C1
:1001400080E880831082A89584B7877F84BFE0E62B
:10015000F0E0808188618083108208951092800091
:1001600084E08093810010928500109284000895AD
:10017000809184009091850008959C018091840075
:1001800090918500AC01421B530B483E5340B0F7A1
:1001900008952091840030918500820F931F0C9464
:1001A000BD0081110CC08091CB01882331F080917A
:1001B000CC0191E089278170089580E0FCCF80E038
:1001C000089581110AC08091CB01811104C08091F2
:1001D000CC018170089580E0FCCF80E0089581110A
:1001E00003C08091CB01089580E00895811105C07E
:1001F0008091CB0191E08927089580E00895EBEC90
:10020000F1E08081818389B1881F8827881F8083DE
:10021000089557985F980895853098F4673088F46A
:1002200021E030E001C0220F6A95EAF7E82FF0E004
:10023000E253FE4F822F8095908189234111822BBA
:1002400080830895853080F4673070F4E82FF0E003
:10025000E253FE4F81E090E001C0880F6A95EAF713
:100260009081982381E009F480E008956091CD01A8
:10027000E62FF0E0E253FE4F80810E9483018091DF
:10028000CD018F5F853018F48093CD0108951092D1
:10029000CD010895EEECF1E01082118212821382FA
:1002A000148208950E9461010C944A019C01FC0192
:1002B000FF2784A1832B84A385A1832B85A381E0C1
:1002C0000895CF93DF93C7EBD1E0899199910E9474
:1002D000560181E0C53CD807C1F783E090E40E9455
:1002E000560180E090E80E94560183E090E10E9470
:1002F000560183E090E80E94560183E090E2DF918E
:10030000CF910C945601E091D301F0E0EE0FFF1F66
:10031000E355FE4F20813181F901FF2795A1932BF1
:1003200095A3A7EBB1E045EC51E02D913D91F9018A
:10033000FF2780FF1BC025A1932F9095922395A3A3
:1003400086954A175B0789F7E62FF0E0EE0FFF1F4F
:10035000E355FE4F20813181F901FF2795A1832FBD
:100360008095892385A36093D301089595A1932B4C
:10037000E6CFFC01892B81F08381681B67FD09C0F2
:10038000062E000C770B948181E09617170609F072
:100390000CF480E08170089580E00895FC01A62FA0
:1003A000622F892B69F18181481750F592812917B5
:1003B00038F59381A91BA7FD23C00A2E000CBB0BA7
:1003C00094819A171B06E1F0DCF00E94F604480FB6
:1003D000858190E0BD010E94FF049C01942F9695B9
:1003E00096959695E20FF31FE90FF11D868190E037
:1003F000477002C0959587954A95E2F781700895F8
:1004000080E00895182F092FF62E0E94AE000E945A
:10041000B800C12FD02F8E819F810E94BD00E8813E
:10042000F9818A819B8109958E819F812C813D81F3
:10043000820F931F9F838E830E94B800AC01E12F2F
:10044000F02FAFEFBFEF80E08F1105C06C2F9D2F15
:10045000C62FD92FE0CF6E2F9F2F268137816A01BB
:10046000C21AD30A7FEFC7167FE7D70688F3241B8B
:10047000350B2A173B0710F4D901EF018F5F38962F
:10048000E3CF692F0C94220141E0611101C040E0EB
:10049000692F0C940C010C9444025F926F927F922E
:1004A0008F929F92AF92BF92CF92DF92EF92FF9284
:1004B0000F931F93CF93DF93862E772E942E682E63
:1004C000592EB62EA72E062E000C770BE82F082EDD
:1004D000000CFF0B8B010E1B1F0B272D072C000C94
:1004E000330B492F092E000C550BE901C41BD50B0A
:1004F00017FF59C0DD24DA94D7FD02C0DD24D39460
:100500008F01061B170BCC24CA94D7FF03C0EA0146
:10051000C21BD30B0C171D076CF1780117FF03C02A
:100520008FEFE81AF80AF594E794A92E681014C022
:10053000692D8B2D9A2DDF91CF911F910F91FF90F7
:10054000EF90DF90CF90BF90AF909F908F907F9073
:100550006F905F900C944402692D862D9A2D0E9415
:100560004402EC1AFD0AF7FE03C0E00EF11EAD0CCA
:100570006C0CDCCF7E01D7FF03C09FEFE91AF90AAC
:10058000F594E794B82E571499F2692D8B2D952D7B
:100590000E944402E01AF10AF7FE03C0EC0EFD1EB1
:1005A000BC0C5D0CF0CFCC24C394DD24DA94D7FDD1
:1005B000AECFDD24D394AECFFF920F931F93CF9392
:1005C000DF93D82FF92E162FC72F042F792F0E94D3
:1005D0004D02402F6D2F7C2F8D2F9F2D0E944D029D
:1005E000402F612F7C2F812F9F2D0E944D02402F85
:1005F000612F7C2F8D2F9C2FDF91CF911F910F9119
:10060000FF900C944D020E944A01E0E0F1E0118A53
:1006100014860895DF92EF92FF920F931F93CF936A
:10062000DF93D82E7B01C62F0F2D80910201909170
:100630000301D0E0019751F1CE2DCD0FE0910801DB
:10064000F09109018181D81708F45CC0D0E0E091F5
:100650000801F09109018281D81708F455C0CF5FD5
:1006600027C0212F4D2F6D2D0E94CE01682F8E2D7A
:10067000810F902F0E9444021F5F8091080190918A
:100680000901FC012281121760F3DF5F0F2D0D1BA2
:10069000E0910801F09109018181D81798F0D0E02C
:1006A000E0910801F09109018281D81768F00150AA
:1006B0008C2F902FDF91CF911F910F91FF90EF9092
:1006C000DF90089510E0D9CF60E08E2D8D0F902F30
:1006D0000E944402DF5FE4CF212F4D2F6D2D0E9439
:1006E000CE01682F8C2F9F2D910F0E9444021F5F17
:1006F0008091080190910901FC012281121760F399
:10070000DF5F9ACF10E0F4CF60E08C2F9F2D9D0F1C
:100710000E944402DF5F9BCF1F93CF93DF93EC01D6
:1007200010E08991882341F00E940A03BC011F5FF9
:10073000853014F477FFF5CF812FDF91CF911F9192
:1007400008950F931F93CF93DF93EC01362F272F3C
:1007500010920C0140930D011092100100910801BC
:10076000109109010115110509F446C0F8018181B4
:10077000609106017091070190E00E94FF04BC01A6
:1007800080910A0190910B010E941005CB016AE053
:1007900070E00E94FF0490930F0180930E0130934C
:1007A00004012093050140E250E0BE0181E191E0A7
:1007B0000E94240580910001909101010197E1F4CC
:1007C000FE0101900020E9F73197BF016C1B7D0B02
:1007D000F80181818F5F0E94F6048150209102010F
:1007E0003091030195E02130310509F497E0981725
:1007F00018F48EEF80931001DF91CF911F910F912C
:100800000895209102013091030170E021303105FB
:1008100009F476E04FEF60E00C94A10390E0909330
:1008200007018093060108959093010180930001D0
:100830000895909303018093020108959093090114
:100840008093080108958091D4019091D50101967B
:100850009093D5018093D40120910E0130910F0126
:100860008217930708F441C01092D5011092D40169
:10087000E0910C01F0E0E050FF4F8189811109C047
:1008800080910D01823088F1815080930D0110928A
:100890000C0180910C0190E0FC01E050FF4F218998
:1008A000222319F140910001509101012091100182
:1008B00041155105E1F04130510551F18091100190
:1008C0008F5F80931001082E000C990BE0910801B6
:1008D000F09109012181281719063CF410921001AA
:1008E00080910C018F5F80930C010C9436012111D3
:1008F000E5CF60910401709105018F5E9E4F0E94CB
:100900008C0390910C019150980F90930C01D6CFCD
:100910006091040170910501409102015091030121
:100920004130510531F4720F8F5E9E4F0E948C034F
:10093000C5CF621BF9CFCF93DF93C0E0D1E09B8797
:100940008A870E94520184E190E09F838E83DF9129
:10095000CF910C940303CDB7DEB768970FB6F89428
:10096000DEBF0FBECDBFFE01339686E1DF011D92D3
:100970008A95E9F789E590E09A8389838DE790E08D
:100980009E838D8380E990E09A87898788E391E050
:100990009E878D872BE530E03A8B298B9E8B8D8B44
:1009A0000E949E008AEF90E00E949B0481E391E008
:1009B0000E941E0490E080E00E94140481E090E018
:1009C0000E9419040E94090185EC91E00E94010433
:1009D00063E0CE0101960E94020290E080E06896FA
:1009E0000FB6F894DEBF0FBECDBF0895002480FD82
:1009F000060E660F11F08695D1F7802D089500241C
:100A0000552704C0080E591F880F991F009729F019
:100A100076956795B8F37105B9F7802D952F0895F0
:100A2000AA1BBB1B51E107C0AA1FBB1FA617B70714
:100A300010F0A61BB70B881F991F5A95A9F7809530
:100A40009095BC01CD010895FB01DC01415050405F
:100A500048F001900D920020C9F701C01D9241504D
:0A0A60005040E0F70895F894FFCF2E
:100A6A000000000000001400000000000000000068
:100A7A00000000000000000000000000000000006C
:100A8A00000000000000000000000000000000005C
:100A9A0000010305203B0200009220EB737D5FDE1C
:100AAA003DA552EA7A14004A222229BA2ED005001C
:100ABA0014C0010020A4126A2B9A74A372A338ED01
:100ACA00498F38CE2AA712AA2AAE49100410145404
:100ADA0044380E11152A250000EA5BEB3A4F726B77
:100AEA003BCF73CF134F7AED5B9774247B5D5649E6
:100AFA0072FD5B6F5B6F7BEF136F7FEF57CE38979B
:100B0A00246D7B6D2BED5FAD5AAD24A772034000B7
:100B1A00800310038003200040002000100008001A
:080B2A0004000200013030005C
:00000001FF
