:100000000C943A000C9457000C9457000C94570031
:100010000C9457000C9457000C9457000C94570004
:100020000C9457000C9457000C9457000C945700F4
:100030000C9457000C9457000C9457000C945700E4
:100040000C9457000C9457000C9457000C945700D4
:100050000C9457000C9457000C9457000C945700C4
:100060000C9457000C9457000C9457000C945700B4
:100070000C94570011241FBECFEFD4E0DEBFCDBFDC
:1000800011E0A0E0B1E0ECE3FCE002C005900D92CD
:10009000AA35B107D9F721E0AAE5B1E001C01D9268
:1000A000A736B207E1F70E942E040C941C060C94AC
:1000B0000000E1E6F0E080E880831082A89584B734
:1000C000877F84BFE0E6F0E08081886180831082D2
:1000D00008951092800084E0809381001092850042
:1000E0001092840008958091840090918500089575
:1000F0009C018091840090918500AC01421B530BC0
:10010000483E5340B0F70895209184003091850017
:10011000820F931F0C947800853098F4673088F430
:1001200021E030E001C0220F6A95EAF7E82FF0E005
:10013000E55AFE4F822F8095908189234111822BB1
:1001400080830895853080F4673070F4E82FF0E004
:10015000E55AFE4F81E090E001C0880F6A95EAF70A
:100160009081982381E009F480E0089560915A011C
:10017000E62FF0E0E55AFE4F80810E940301809156
:100180005A018F5F853018F480935A0108951092B8
:100190005A010895EBE5F1E0108211821282138278
:1001A000148208950E94E1000C94CA009C01FC0195
:1001B000FF2784A1832B84A385A1832B85A381E0C2
:1001C0000895CF93DF93CBE4D1E0899199910E9478
:1001D000D60081E0C935D807C1F783E090E40E94DA
:1001E000D60080E090E80E94D60083E090E10E9473
:1001F000D60083E090E80E94D60083E090E2DF9191
:10020000CF910C94D600E0916001F0E0EE0FFF1F5B
:10021000EF5BFE4F20813181F901FF2795A1932BE0
:1002200095A3ABE4B1E049E551E02D913D91F90191
:10023000FF2780FF1BC025A1932F9095922395A3A4
:1002400086954A175B0789F7E62FF0E0EE0FFF1F50
:10025000EF5BFE4F20813181F901FF2795A1832FAC
:100260008095892385A360936001089595A1932BC0
:10027000E6CFFC01892B81F08381681B67FD09C0F3
:10028000062E000C770B948181E09617170609F073
:100290000CF480E08170089580E00895FC01A62FA1
:1002A000622F892B69F18181481750F592812917B6
:1002B00038F59381A91BA7FD23C00A2E000CBB0BA8
:1002C00094819A171B06E1F0DCF00E94F404480FB9
:1002D000858190E0BD010E94FD049C01942F9695BC
:1002E00096959695E20FF31FE90FF11D868190E038
:1002F000477002C0959587954A95E2F781700895F9
:1003000080E00895CF93DF93EC010E9469009E0185
:1003100050E040E062E17AE780E090E00E9436053C
:100320003093640120936301DF91CF910895809110
:100330006101909162010E94780080916101909129
:1003400062012091630130916401820F931F9093A9
:100350006201809361010895FC0160830895FC01AE
:1003600061830895FC0182818F5F82839081891768
:1003700008F0128281E022819181291708F080E043
:100380000895FC0112820895692F0C94A20041E0A7
:10039000611101C040E0692F0C948C000C94C701DE
:1003A0005F926F927F928F929F92AF92BF92CF9205
:1003B000DF92EF92FF920F931F93CF93DF93862EDE
:1003C000772E942E682E592EB62EA72E062E000CB0
:1003D000770BE82F082E000CFF0B8B010E1B1F0B59
:1003E000272D072C000C330B492F092E000C550B21
:1003F000E901C41BD50B17FF59C0DD24DA94D7FDE2
:1004000002C0DD24D3948F01061B170BCC24CA94A1
:10041000D7FF03C0EA01C21BD30B0C171D076CF1F9
:10042000780117FF03C08FEFE81AF80AF594E794F4
:10043000A92E681014C0692D8B2D9A2DDF91CF91B4
:100440001F910F91FF90EF90DF90CF90BF90AF90F2
:100450009F908F907F906F905F900C94C701692D53
:10046000862D9A2D0E94C701EC1AFD0AF7FE03C0E3
:10047000E00EF11EAD0C6C0CDCCF7E01D7FF03C08B
:100480009FEFE91AF90AF594E794B82E571499F2F8
:10049000692D8B2D952D0E94C701E01AF10AF7FEF8
:1004A00003C0EC0EFD1EBC0C5D0CF0CFCC24C3943D
:1004B000DD24DA94D7FDAECFDD24D394AECFFF9206
:1004C0000F931F93CF93DF93D82FF92E162FC72F9B
:1004D000042F792F0E94D001402F6D2F7C2F8D2F5C
:1004E0009F2D0E94D001402F612F7C2F812F9F2DA7
:1004F0000E94D001402F612F7C2F8D2F9C2FDF91E8
:10050000CF911F910F91FF900C94D0010E94CA00CF
:10051000E0E0F1E0118A14860895DF92EF92FF92F5
:100520000F931F93CF93DF93D82E7B01C62F0F2DF0
:100530008091020190910301D0E0019751F1CE2DFD
:10054000CD0FE0910801F09109018181D81708F4DD
:100550005CC0D0E0E0910801F09109018281D817D8
:1005600008F455C0CF5F27C0212F4D2F6D2D0E945D
:100570004E01682F8E2D810F902F0E94C7011F5FA3
:100580008091080190910901FC012281121760F30A
:10059000DF5F0F2D0D1BE0910801F09109018181B2
:1005A000D81798F0D0E0E0910801F091090182811C
:1005B000D81768F001508C2F902FDF91CF911F91A9
:1005C0000F91FF90EF90DF90089510E0D9CF60E099
:1005D0008E2D8D0F902F0E94C701DF5FE4CF212F5A
:1005E0004D2F6D2D0E944E01682F8C2F9F2D910F46
:1005F0000E94C7011F5F8091080190910901FC01D1
:100600002281121760F3DF5F9ACF10E0F4CF60E031
:100610008C2F9F2D9D0F0E94C701DF5F9BCF1F93E3
:10062000CF93DF93EC0110E08991882341F00E9481
:100630008D02BC011F5F853014F477FFF5CF812F49
:10064000DF91CF911F9108950F931F93CF93DF9365
:10065000EC01362F272F10920C0140930D011092C0
:10066000100100910801109109010115110509F40B
:1006700046C0F8018181609106017091070190E008
:100680000E94FD04BC0180910A0190910B010E941F
:100690000E05CB016AE070E00E94FD0490930F010B
:1006A00080930E01309304012093050140E250E055
:1006B000BE0181E191E00E94F405809100019091DA
:1006C00001010197E1F4FE0101900020E9F7319763
:1006D000BF016C1B7D0BF80181818F5F0E94F404C8
:1006E0008150209102013091030195E021303105C4
:1006F00009F497E0981718F48EEF80931001DF91BA
:10070000CF911F910F910895209102013091030123
:1007100070E02130310509F476E04FEF60E00C9491
:10072000240390E09093070180930601089590932D
:1007300001018093000108959093030180930201C9
:1007400008959093090180930801089580916501AF
:1007500090916601019690936601809365012091C6
:100760000E0130910F018217930708F441C01092D7
:10077000660110926501E0910C01F0E0E050FF4F3E
:100780008189811109C080910D01823088F18150E9
:1007900080930D0110920C0180910C0190E0FC01FE
:1007A000E050FF4F2189222319F14091000150911F
:1007B00001012091100141155105E1F04130510531
:1007C00051F1809110018F5F80931001082E000C71
:1007D000990BE0910801F091090121812817190670
:1007E0003CF41092100180910C018F5F80930C01FA
:1007F0000C94B6002111E5CF6091040170910501C0
:100800008F5E9E4F0E940F0390910C019150980FA4
:1008100090930C01D6CF6091040170910501409135
:100820000201509103014130510531F4720F8F5E86
:100830009E4F0E940F03C5CF621BF9CFCF93DF936A
:10084000C0E0D1E09B878A870E94D20084E190E0DB
:100850009F838E83DF91CF910C948602CDB7DEB754
:10086000AF970FB6F894DEBF0FBECDBF8E010F5FFE
:100870001F4F83E2D8011D928A95E9F78CE0E5E3EA
:10088000F1E0DE01949601900D928A95E1F70E94C5
:10089000590088E893E10E941E0488E893E10E94D1
:1008A00082019AE0592E27E0A22EB12C35E0832E4A
:1008B000912C4CE0642E712C0E94E4057C010E9476
:1008C000E405B5010E9422056C01DD24C701B401D5
:1008D0000E9422057C01FF24C60165E070E00E94B1
:1008E000FD04F801E80FF91FEE0DFF1D8081811155
:1008F000E3CF0E94E4059C01C60165E070E00E9420
:10090000FD04800F911FE80EF91EC901B3010E947A
:100910000E05F70180835A945110CECFF12CD12CC3
:10092000C12C5E01F6E0AF0EB11C8BE0482E0E9498
:1009300097010E94A6030E9497010E94A6030E94AD
:1009400097010E94A6030E9497010E94A6030E949D
:1009500097010E94A6038FEFC81AD80A98ECC9160F
:10096000D104A8F0C801FC0127E03081332329F02D
:100970004FEF430F3130B1F14083215035962111B3
:10098000F4CF01968A159B0571F7D12CC12C380143
:10099000512C4301E12CD401EC9184E290E08C0FC6
:1009A0009D1F8E0F911DFC0161E08081F81608F0FB
:1009B00060E0852D9E2D0E94C701E39495E0890E8D
:1009C000911CA7E0EA12E7CF5394BFEF6B1A7B0AA2
:1009D000E5E05E12DECFF394F8E1FF1508F0A7CF53
:1009E000F12CA5CF4082C9CF002480FD060E660FF2
:1009F00011F08695D1F7802D08950024552704C065
:100A0000080E591F880F991F009729F07695679552
:100A1000B8F37105B9F7802D952F0895AA1BBB1B5C
:100A200051E107C0AA1FBB1FA617B70710F0A61BEE
:100A3000B70B881F991F5A95A9F780959095BC010F
:100A4000CD01089597FB072E16F4009407D077FD8B
:100A500009D00E940E0507FC05D03EF490958195C3
:100A60009F4F0895709561957F4F0895052E97FBD0
:100A70001EF400940E944D0557FD07D00E945505B5
:100A800007FC03D04EF40C944D05509540953095DD
:100A900021953F4F4F4F5F4F0895909580957095EA
:100AA00061957F4F8F4F9F4F0895A1E21A2EAA1B89
:100AB000BB1BFD010DC0AA1FBB1FEE1FFF1FA2170E
:100AC000B307E407F50720F0A21BB30BE40BF50B0B
:100AD000661F771F881F991F1A9469F76095709594
:100AE000809590959B01AC01BD01CF010895CF92F7
:100AF000DF92EF92FF92CF93DF93CDB7DEB72A97C5
:100B00000FB6F894DEBF0FBECDBF89879A87A9853F
:100B1000BA858D919D910D90BC91A02D89839A836A
:100B2000AB83BC83892B8A2B8B2B41F484E299ED18
:100B3000ABE5B7E089839A83AB83BC8369817A8113
:100B40008B819C812DE133EF41E050E00E9436051E
:100B50002D833E834F83588769837A838B839C835D
:100B600027EA31E440E050E00E9403066B017C017B
:100B70002CEE34EF4FEF5FEF6D817E818F81988592
:100B80000E940306DC01CB018C0D9D1DAE1DBF1D17
:100B9000B7FF03C00197A109B048E985FA858083B2
:100BA0009183A283B3839F772A960FB6F894DEBF12
:100BB0000FBECDBFDF91CF91FF90EF90DF90CF9030
:100BC00008950E947705089581E391E00E947705DA
:100BD0000895B0E0A0E08093310190933201A0939A
:100BE0003301B09334010895FB01DC0141505040C2
:100BF00048F001900D920020C9F701C01D924150AC
:100C00005040E0F70895EE27FF27AA27BB2708C02A
:100C1000A20FB31FE41FF51F220F331F441F551FE0
:100C2000969587957795679598F37040A9F7009703
:0C0C300099F7BD01CF010895F894FFCFA3
:100C3C000000000000001400000000000000000094
:100C4C000000000000000000000000000000000098
:100C5C000000000000000000000000000000000088
:100C6C00000100000000010204080F190F08040223
:100C7C00010340008003100380032000400020008B
:0A0C8C00100008000400020001003F
:00000001FF
